{
  "contractName": "Delegate",
  "abi": [
    {
      "constant": true,
      "inputs": [],
      "name": "data",
      "outputs": [
        {
          "name": "idCount",
          "type": "uint128"
        }
      ],
      "payable": false,
      "stateMutability": "view",
      "type": "function"
    },
    {
      "inputs": [
        {
          "name": "_implementation",
          "type": "address"
        },
        {
          "name": "_collective",
          "type": "address"
        }
      ],
      "payable": false,
      "stateMutability": "nonpayable",
      "type": "constructor"
    },
    {
      "payable": true,
      "stateMutability": "payable",
      "type": "fallback"
    }
  ],
  "bytecode": "0x608060405234801561001057600080fd5b506040516040806101d6833981018060405281019080805190602001909291908051906020019092919050505081600460006101000a81548173ffffffffffffffffffffffffffffffffffffffff021916908373ffffffffffffffffffffffffffffffffffffffff16021790555080600560006101000a81548173ffffffffffffffffffffffffffffffffffffffff021916908373ffffffffffffffffffffffffffffffffffffffff1602179055505050610106806100d06000396000f300608060405260043610603f576000357c0100000000000000000000000000000000000000000000000000000000900463ffffffff16806373d4a13a146066575b604051366000823760008136836004545af43d6000833e80600081146062573d83f35b3d83fd5b348015607157600080fd5b50607860b2565b60405180826fffffffffffffffffffffffffffffffff166fffffffffffffffffffffffffffffffff16815260200191505060405180910390f35b60008060000160009054906101000a90046fffffffffffffffffffffffffffffffff169050815600a165627a7a7230582073ad74dfb441c18f5482a1d7b99b900a2310c2951d0138f4ca200b4d7572d9fc0029",
  "source": "import \"./Heap.sol\";\n\ncontract Delegate{ // an upgradeable interface\n\n  using Heap for Heap.Data;\n  Heap.Data public data;\n\n  struct MarketOrder{\n    uint32 id;           // holds up to 2.4 billion 32\n    uint64 price;        // implied market cap of 200 Billion 38\n    uint64 amount;       // entire supply 52\n    uint64 createdAt;    // thousand years 36\n    address user;        //+160 = 318 bits :(\n  }\n  mapping(uint128 => MarketOrder) marketOrders; \n\n  address implementation;        // key: 0\n  address collective;            // key: 1\n\n  constructor(address _implementation, address _collective){ \n    implementation = _implementation; \n    collective   = _collective;\n  }\n\n  function () public payable{\n    assembly{\n      let m := mload(0x40)\n      calldatacopy(m,0,calldatasize)\n      let success := delegatecall(gas, sload(implementation_slot), m, calldatasize, m, 0)\n      returndatacopy(m,0,returndatasize)\n\n      switch success\n      case 0 { revert(m, returndatasize()) }\n      default { return(m, returndatasize()) }\n    }\n  }\n\n}\n",
  "sourcePath": "/Users/zacharymitton/Dropbox/zac_mitton/dev/ethereum/eth-heap/contracts/Delegate.sol",
  "compiler": {
    "name": "solc",
    "version": "0.4.24+commit.e67f0147.Emscripten.clang"
  },
  "schemaVersion": "2.0.1",
  "updatedAt": "2018-09-17T21:39:46.686Z"
}