{
  "contractName": "HeapClient",
  "abi": [
    {
      "constant": true,
      "inputs": [],
      "name": "data",
      "outputs": [
        {
          "name": "idCount",
          "type": "uint128"
        }
      ],
      "payable": false,
      "stateMutability": "view",
      "type": "function"
    },
    {
      "constant": false,
      "inputs": [
        {
          "name": "priorities",
          "type": "uint128[]"
        }
      ],
      "name": "heapify",
      "outputs": [],
      "payable": false,
      "stateMutability": "nonpayable",
      "type": "function"
    },
    {
      "constant": false,
      "inputs": [
        {
          "name": "priority",
          "type": "uint128"
        }
      ],
      "name": "push",
      "outputs": [
        {
          "components": [
            {
              "name": "id",
              "type": "uint128"
            },
            {
              "name": "priority",
              "type": "uint128"
            }
          ],
          "name": "",
          "type": "tuple"
        }
      ],
      "payable": false,
      "stateMutability": "nonpayable",
      "type": "function"
    },
    {
      "constant": false,
      "inputs": [],
      "name": "pop",
      "outputs": [
        {
          "components": [
            {
              "name": "id",
              "type": "uint128"
            },
            {
              "name": "priority",
              "type": "uint128"
            }
          ],
          "name": "",
          "type": "tuple"
        }
      ],
      "payable": false,
      "stateMutability": "nonpayable",
      "type": "function"
    },
    {
      "constant": false,
      "inputs": [
        {
          "name": "id",
          "type": "uint128"
        }
      ],
      "name": "remove",
      "outputs": [
        {
          "components": [
            {
              "name": "id",
              "type": "uint128"
            },
            {
              "name": "priority",
              "type": "uint128"
            }
          ],
          "name": "",
          "type": "tuple"
        }
      ],
      "payable": false,
      "stateMutability": "nonpayable",
      "type": "function"
    },
    {
      "constant": true,
      "inputs": [],
      "name": "get",
      "outputs": [
        {
          "components": [
            {
              "name": "id",
              "type": "uint128"
            },
            {
              "name": "priority",
              "type": "uint128"
            }
          ],
          "name": "",
          "type": "tuple[]"
        }
      ],
      "payable": false,
      "stateMutability": "view",
      "type": "function"
    },
    {
      "constant": true,
      "inputs": [
        {
          "name": "id",
          "type": "uint128"
        }
      ],
      "name": "getById",
      "outputs": [
        {
          "components": [
            {
              "name": "id",
              "type": "uint128"
            },
            {
              "name": "priority",
              "type": "uint128"
            }
          ],
          "name": "",
          "type": "tuple"
        }
      ],
      "payable": false,
      "stateMutability": "view",
      "type": "function"
    },
    {
      "constant": true,
      "inputs": [],
      "name": "max",
      "outputs": [
        {
          "components": [
            {
              "name": "id",
              "type": "uint128"
            },
            {
              "name": "priority",
              "type": "uint128"
            }
          ],
          "name": "",
          "type": "tuple"
        }
      ],
      "payable": false,
      "stateMutability": "view",
      "type": "function"
    },
    {
      "constant": true,
      "inputs": [],
      "name": "size",
      "outputs": [
        {
          "name": "",
          "type": "uint256"
        }
      ],
      "payable": false,
      "stateMutability": "view",
      "type": "function"
    },
    {
      "constant": true,
      "inputs": [
        {
          "name": "i",
          "type": "uint256"
        }
      ],
      "name": "getByIndex",
      "outputs": [
        {
          "components": [
            {
              "name": "id",
              "type": "uint128"
            },
            {
              "name": "priority",
              "type": "uint128"
            }
          ],
          "name": "",
          "type": "tuple"
        }
      ],
      "payable": false,
      "stateMutability": "view",
      "type": "function"
    },
    {
      "constant": true,
      "inputs": [],
      "name": "idCount",
      "outputs": [
        {
          "name": "",
          "type": "uint256"
        }
      ],
      "payable": false,
      "stateMutability": "view",
      "type": "function"
    },
    {
      "constant": true,
      "inputs": [
        {
          "name": "id",
          "type": "uint128"
        }
      ],
      "name": "indices",
      "outputs": [
        {
          "name": "",
          "type": "uint256"
        }
      ],
      "payable": false,
      "stateMutability": "view",
      "type": "function"
    }
  ],
  "bytecode": "0x608060405234801561001057600080fd5b5061171a806100206000396000f3006080604052600436106100ba576000357c0100000000000000000000000000000000000000000000000000000000900463ffffffff1680632d883a73146100bf57806344121cc5146100fc5780634839063f146101395780636ac5db19146101765780636d2e47b6146101a15780636d4ce63c146101ca57806373d4a13a146101f5578063779bb12214610220578063949d225d1461025d578063a4ece52c14610288578063d2f2b20b146102b3578063e6e46238146102f0575b600080fd5b3480156100cb57600080fd5b506100e660048036036100e191908101906114a7565b61031b565b6040516100f391906115c9565b60405180910390f35b34801561010857600080fd5b50610123600480360361011e919081019061147e565b61033e565b60405161013091906115c9565b60405180910390f35b34801561014557600080fd5b50610160600480360361015b919081019061147e565b610373565b60405161016d91906115ff565b60405180910390f35b34801561018257600080fd5b5061018b6103a4565b60405161019891906115c9565b60405180910390f35b3480156101ad57600080fd5b506101c860048036036101c3919081019061143d565b6103bb565b005b3480156101d657600080fd5b506101df6103d2565b6040516101ec91906115a7565b60405180910390f35b34801561020157600080fd5b5061020a6103e3565b60405161021791906115e4565b60405180910390f35b34801561022c57600080fd5b506102476004803603610242919081019061147e565b61040b565b60405161025491906115c9565b60405180910390f35b34801561026957600080fd5b5061027261042e565b60405161027f91906115ff565b60405180910390f35b34801561029457600080fd5b5061029d61043f565b6040516102aa91906115c9565b60405180910390f35b3480156102bf57600080fd5b506102da60048036036102d5919081019061147e565b610456565b6040516102e791906115c9565b60405180910390f35b3480156102fc57600080fd5b5061030561048b565b60405161031291906115ff565b60405180910390f35b6103236112c1565b6103378260006104c590919063ffffffff16565b9050919050565b6103466112c1565b61036c826fffffffffffffffffffffffffffffffff1660006105de90919063ffffffff16565b9050919050565b6000806002016000836fffffffffffffffffffffffffffffffff168152602001908152602001600020549050919050565b6103ac6112c1565b6103b66000610613565b905090565b6103cf81600061072d90919063ffffffff16565b50565b60606103de600061076d565b905090565b60008060000160009054906101000a90046fffffffffffffffffffffffffffffffff16905081565b6104136112c1565b61042782600061086090919063ffffffff16565b9050919050565b600061043a6000610a5a565b905090565b6104476112c1565b6104516000610a84565b905090565b61045e6112c1565b610484826fffffffffffffffffffffffffffffffff166000610a9e90919063ffffffff16565b9050919050565b60008060000160009054906101000a90046fffffffffffffffffffffffffffffffff166fffffffffffffffffffffffffffffffff16905090565b6104cd6112c1565b8183600101805490501161051b57604080519081016040528060006fffffffffffffffffffffffffffffffff16815260200160006fffffffffffffffffffffffffffffffff168152506105d6565b826001018281548110151561052c57fe5b906000526020600020016040805190810160405290816000820160009054906101000a90046fffffffffffffffffffffffffffffffff166fffffffffffffffffffffffffffffffff166fffffffffffffffffffffffffffffffff1681526020016000820160109054906101000a90046fffffffffffffffffffffffffffffffff166fffffffffffffffffffffffffffffffff166fffffffffffffffffffffffffffffffff16815250505b905092915050565b6105e66112c1565b600083600201600084815260200190815260200160002054905061060a8482610acd565b91505092915050565b61061b6112c1565b600182600101805490501161066a57604080519081016040528060006fffffffffffffffffffffffffffffffff16815260200160006fffffffffffffffffffffffffffffffff16815250610726565b81600101600181548110151561067c57fe5b906000526020600020016040805190810160405290816000820160009054906101000a90046fffffffffffffffffffffffffffffffff166fffffffffffffffffffffffffffffffff166fffffffffffffffffffffffffffffffff1681526020016000820160109054906101000a90046fffffffffffffffffffffffffffffffff166fffffffffffffffffffffffffffffffff166fffffffffffffffffffffffffffffffff16815250505b9050919050565b60005b81518110156107685761075a83838381518110151561074b57fe5b90602001906020020151610860565b508080600101915050610730565b505050565b606081600101805480602002602001604051908101604052809291908181526020016000905b82821015610855578382906000526020600020016040805190810160405290816000820160009054906101000a90046fffffffffffffffffffffffffffffffff166fffffffffffffffffffffffffffffffff166fffffffffffffffffffffffffffffffff1681526020016000820160109054906101000a90046fffffffffffffffffffffffffffffffff166fffffffffffffffffffffffffffffffff166fffffffffffffffffffffffffffffffff168152505081526020019060010190610793565b505050509050919050565b6108686112c1565b6108706112c1565b6001846001018054905010156109685783600101604080519081016040528060006fffffffffffffffffffffffffffffffff16815260200160006fffffffffffffffffffffffffffffffff1681525090806001815401808255809150509060018203906000526020600020016000909192909190915060008201518160000160006101000a8154816fffffffffffffffffffffffffffffffff02191690836fffffffffffffffffffffffffffffffff16021790555060208201518160000160106101000a8154816fffffffffffffffffffffffffffffffff02191690836fffffffffffffffffffffffffffffffff1602179055505050505b83600001600081819054906101000a90046fffffffffffffffffffffffffffffffff168092919060010191906101000a8154816fffffffffffffffffffffffffffffffff02191690836fffffffffffffffffffffffffffffffff160217905550508360010180548091906001016109df91906112ff565b5060408051908101604052808560000160009054906101000a90046fffffffffffffffffffffffffffffffff166fffffffffffffffffffffffffffffffff168152602001846fffffffffffffffffffffffffffffffff168152509050610a5084826001876001018054905003610db9565b8091505092915050565b600080826001018054905011610a71576000610a7d565b60018260010180549050035b9050919050565b610a8c6112c1565b610a97826001610acd565b9050919050565b610aa66112c1565b610ac583846002016000858152602001908152602001600020546104c5565b905092915050565b610ad56112c1565b610add6112c1565b610ae56112c1565b836000108015610afb5750846001018054905084105b1515610b0657600080fd5b8460010184815481101515610b1757fe5b906000526020600020016040805190810160405290816000820160009054906101000a90046fffffffffffffffffffffffffffffffff166fffffffffffffffffffffffffffffffff166fffffffffffffffffffffffffffffffff1681526020016000820160109054906101000a90046fffffffffffffffffffffffffffffffff166fffffffffffffffffffffffffffffffff166fffffffffffffffffffffffffffffffff1681525050915084600201600083600001516fffffffffffffffffffffffffffffffff16815260200190815260200160002060009055846001016001866001018054905003815481101515610c0c57fe5b906000526020600020016040805190810160405290816000820160009054906101000a90046fffffffffffffffffffffffffffffffff166fffffffffffffffffffffffffffffffff166fffffffffffffffffffffffffffffffff1681526020016000820160109054906101000a90046fffffffffffffffffffffffffffffffff166fffffffffffffffffffffffffffffffff166fffffffffffffffffffffffffffffffff1681525050905084600101805480919060019003610cce91906112ff565b508460010180549050841015610dae57610ce9858286610db9565b610dad858660010186815481101515610cfe57fe5b906000526020600020016040805190810160405290816000820160009054906101000a90046fffffffffffffffffffffffffffffffff166fffffffffffffffffffffffffffffffff166fffffffffffffffffffffffffffffffff1681526020016000820160109054906101000a90046fffffffffffffffffffffffffffffffff166fffffffffffffffffffffffffffffffff166fffffffffffffffffffffffffffffffff168152505086610f56565b5b819250505092915050565b600081118015610dcf5750826001018054905081105b1515610dd757fe5b6001811480610e54575082600101600282811515610df157fe5b04815481101515610dfe57fe5b9060005260206000200160000160109054906101000a90046fffffffffffffffffffffffffffffffff166fffffffffffffffffffffffffffffffff1682602001516fffffffffffffffffffffffffffffffff1611155b15610e6957610e648383836111ef565b610f51565b610f398384600101600284811515610e7d57fe5b04815481101515610e8a57fe5b906000526020600020016040805190810160405290816000820160009054906101000a90046fffffffffffffffffffffffffffffffff166fffffffffffffffffffffffffffffffff166fffffffffffffffffffffffffffffffff1681526020016000820160109054906101000a90046fffffffffffffffffffffffffffffffff166fffffffffffffffffffffffffffffffff166fffffffffffffffffffffffffffffffff1681525050836111ef565b610f508383600284811515610f4a57fe5b04610db9565b5b505050565b600080610f616112c1565b85600101805490509250600284029150836000108015610f8057508284105b1515610f8857fe5b8183111561104d578560010182815481101515610fa157fe5b906000526020600020016040805190810160405290816000820160009054906101000a90046fffffffffffffffffffffffffffffffff166fffffffffffffffffffffffffffffffff166fffffffffffffffffffffffffffffffff1681526020016000820160109054906101000a90046fffffffffffffffffffffffffffffffff166fffffffffffffffffffffffffffffffff166fffffffffffffffffffffffffffffffff168152505090505b60018201831180156110c35750856001016001830181548110151561106e57fe5b9060005260206000200160000160109054906101000a90046fffffffffffffffffffffffffffffffff166fffffffffffffffffffffffffffffffff1681602001516fffffffffffffffffffffffffffffffff16105b1561118b5785600101826001019250828154811015156110df57fe5b906000526020600020016040805190810160405290816000820160009054906101000a90046fffffffffffffffffffffffffffffffff166fffffffffffffffffffffffffffffffff166fffffffffffffffffffffffffffffffff1681526020016000820160109054906101000a90046fffffffffffffffffffffffffffffffff166fffffffffffffffffffffffffffffffff166fffffffffffffffffffffffffffffffff168152505090505b84602001516fffffffffffffffffffffffffffffffff1681602001516fffffffffffffffffffffffffffffffff161115156111d0576111cb8686866111ef565b6111e7565b6111db8682866111ef565b6111e6868684610f56565b5b505050505050565b81836001018281548110151561120157fe5b9060005260206000200160008201518160000160006101000a8154816fffffffffffffffffffffffffffffffff02191690836fffffffffffffffffffffffffffffffff16021790555060208201518160000160106101000a8154816fffffffffffffffffffffffffffffffff02191690836fffffffffffffffffffffffffffffffff1602179055509050508083600201600084600001516fffffffffffffffffffffffffffffffff16815260200190815260200160002081905550505050565b604080519081016040528060006fffffffffffffffffffffffffffffffff16815260200160006fffffffffffffffffffffffffffffffff1681525090565b81548183558181111561132657818360005260206000209182019101611325919061132b565b5b505050565b61138d91905b8082111561138957600080820160006101000a8154906fffffffffffffffffffffffffffffffff02191690556000820160106101000a8154906fffffffffffffffffffffffffffffffff021916905550600101611331565b5090565b90565b600082601f83011215156113a357600080fd5b81356113b66113b182611647565b61161a565b915081818352602084019350602081019050838560208402820111156113db57600080fd5b60005b8381101561140b57816113f18882611415565b8452602084019350602083019250506001810190506113de565b5050505092915050565b600061142182356116ba565b905092915050565b600061143582356116d6565b905092915050565b60006020828403121561144f57600080fd5b600082013567ffffffffffffffff81111561146957600080fd5b61147584828501611390565b91505092915050565b60006020828403121561149057600080fd5b600061149e84828501611415565b91505092915050565b6000602082840312156114b957600080fd5b60006114c784828501611429565b91505092915050565b60006114db8261167c565b8084526020840193506114ed8361166f565b60005b8281101561151f5761150386835161155a565b61150c82611687565b91506040860195506001810190506114f0565b50849250505092915050565b6040820160008201516115416000850182611589565b5060208201516115546020850182611589565b50505050565b6040820160008201516115706000850182611589565b5060208201516115836020850182611589565b50505050565b61159281611694565b82525050565b6115a1816116b0565b82525050565b600060208201905081810360008301526115c181846114d0565b905092915050565b60006040820190506115de600083018461152b565b92915050565b60006020820190506115f96000830184611589565b92915050565b60006020820190506116146000830184611598565b92915050565b6000604051905081810181811067ffffffffffffffff8211171561163d57600080fd5b8060405250919050565b600067ffffffffffffffff82111561165e57600080fd5b602082029050602081019050919050565b6000602082019050919050565b600081519050919050565b6000602082019050919050565b60006fffffffffffffffffffffffffffffffff82169050919050565b6000819050919050565b60006fffffffffffffffffffffffffffffffff82169050919050565b60008190509190505600a265627a7a72305820dbd28f9c6ef474e641bd473fee9b5c4cb3e4074e256d13846e1ca48a6c021f506c6578706572696d656e74616cf50037",
  "source": "import \"./Heap.sol\";\n\npragma experimental ABIEncoderV2;\n\ncontract HeapClient{\n    using Heap for Heap.Data;\n    Heap.Data public data;\n    uint[] r;\n\n    function heapify(uint128[] priorities) public {\n        data.heapify(priorities);\n    }\n    function push(uint128 priority) public returns(Heap.Node){\n        return data.push(priority);\n    }\n    function pop() public returns(Heap.Node){\n        return data.pop();\n    }\n    function remove(uint128 id) public returns(Heap.Node){\n        return data.remove(id);\n    }\n    function get() public view returns(Heap.Node[]){\n        return data.get();\n    }\n    function getById(uint128 id) public view returns(Heap.Node){\n        return data.getById(id);\n    }\n    function max() public view returns(Heap.Node){\n        return data.max();\n    }\n    function size() public view returns(uint){\n        return data.size();\n    }\n    function getByIndex(uint i) public view returns(Heap.Node){\n        return data.getByIndex(i);\n    }\n    function idCount() public view returns(uint){\n        return data.idCount;\n    }\n    function indices(uint128 id) public view returns(uint){\n        return data.indices[id];\n    }\n    \n}\n",
  "sourcePath": "/Users/zacharymitton/Dropbox/zac_mitton/dev/ethereum/eth-heap/contracts/HeapClient.sol",
  "compiler": {
    "name": "solc",
    "version": "0.4.24+commit.e67f0147.Emscripten.clang"
  },
  "schemaVersion": "2.0.1",
  "updatedAt": "2018-09-17T21:39:46.690Z"
}